{
  "_format": "hh-sol-artifact-1",
  "contractName": "Airdrop",
  "sourceName": "contracts/Airdrop.sol",
  "abi": [
    {
      "inputs": [
        {
          "internalType": "address",
          "name": "gateway_",
          "type": "address"
        },
        {
          "internalType": "address",
          "name": "gasReceiver_",
          "type": "address"
        }
      ],
      "stateMutability": "nonpayable",
      "type": "constructor"
    },
    {
      "inputs": [],
      "name": "InvalidAddress",
      "type": "error"
    },
    {
      "inputs": [],
      "name": "NotApprovedByGateway",
      "type": "error"
    },
    {
      "inputs": [
        {
          "internalType": "uint256",
          "name": "",
          "type": "uint256"
        }
      ],
      "name": "airdropRecipients",
      "outputs": [
        {
          "internalType": "address",
          "name": "",
          "type": "address"
        }
      ],
      "stateMutability": "view",
      "type": "function"
    },
    {
      "inputs": [],
      "name": "amountReceived",
      "outputs": [
        {
          "internalType": "uint256",
          "name": "",
          "type": "uint256"
        }
      ],
      "stateMutability": "view",
      "type": "function"
    },
    {
      "inputs": [
        {
          "internalType": "bytes32",
          "name": "commandId",
          "type": "bytes32"
        },
        {
          "internalType": "string",
          "name": "sourceChain",
          "type": "string"
        },
        {
          "internalType": "string",
          "name": "sourceAddress",
          "type": "string"
        },
        {
          "internalType": "bytes",
          "name": "payload",
          "type": "bytes"
        }
      ],
      "name": "execute",
      "outputs": [],
      "stateMutability": "nonpayable",
      "type": "function"
    },
    {
      "inputs": [
        {
          "internalType": "bytes32",
          "name": "commandId",
          "type": "bytes32"
        },
        {
          "internalType": "string",
          "name": "sourceChain",
          "type": "string"
        },
        {
          "internalType": "string",
          "name": "sourceAddress",
          "type": "string"
        },
        {
          "internalType": "bytes",
          "name": "payload",
          "type": "bytes"
        },
        {
          "internalType": "string",
          "name": "tokenSymbol",
          "type": "string"
        },
        {
          "internalType": "uint256",
          "name": "amount",
          "type": "uint256"
        }
      ],
      "name": "executeWithToken",
      "outputs": [],
      "stateMutability": "nonpayable",
      "type": "function"
    },
    {
      "inputs": [],
      "name": "gasService",
      "outputs": [
        {
          "internalType": "contract IAxelarGasService",
          "name": "",
          "type": "address"
        }
      ],
      "stateMutability": "view",
      "type": "function"
    },
    {
      "inputs": [],
      "name": "gateway",
      "outputs": [
        {
          "internalType": "contract IAxelarGateway",
          "name": "",
          "type": "address"
        }
      ],
      "stateMutability": "view",
      "type": "function"
    },
    {
      "inputs": [],
      "name": "getRecipients",
      "outputs": [
        {
          "internalType": "address[]",
          "name": "",
          "type": "address[]"
        }
      ],
      "stateMutability": "view",
      "type": "function"
    },
    {
      "inputs": [
        {
          "internalType": "string",
          "name": "destinationChain",
          "type": "string"
        },
        {
          "internalType": "string",
          "name": "destinationAddress",
          "type": "string"
        },
        {
          "internalType": "address[]",
          "name": "destinationAddresses",
          "type": "address[]"
        },
        {
          "internalType": "string",
          "name": "symbol",
          "type": "string"
        },
        {
          "internalType": "uint256",
          "name": "amount",
          "type": "uint256"
        }
      ],
      "name": "sendToMany",
      "outputs": [],
      "stateMutability": "payable",
      "type": "function"
    }
  ],
  "bytecode": "0x60c06040523480156200001157600080fd5b5060405162001d4238038062001d4283398181016040528101906200003791906200017b565b81600073ffffffffffffffffffffffffffffffffffffffff168173ffffffffffffffffffffffffffffffffffffffff161415620000a0576040517fe6c4247b00000000000000000000000000000000000000000000000000000000815260040160405180910390fd5b8073ffffffffffffffffffffffffffffffffffffffff1660808173ffffffffffffffffffffffffffffffffffffffff1681525050508073ffffffffffffffffffffffffffffffffffffffff1660a08173ffffffffffffffffffffffffffffffffffffffff16815250505050620001c2565b600080fd5b600073ffffffffffffffffffffffffffffffffffffffff82169050919050565b6000620001438262000116565b9050919050565b620001558162000136565b81146200016157600080fd5b50565b60008151905062000175816200014a565b92915050565b6000806040838503121562000195576200019462000111565b5b6000620001a58582860162000164565b9250506020620001b88582860162000164565b9150509250929050565b60805160a051611b29620002196000396000818161048601526107920152600081816101d9015281816102190152818161034401528181610583015281816106da0152818161082a01526108dc0152611b296000f3fe60806040526004361061007b5760003560e01c80636a22d8cc1161004e5780636a22d8cc1461013a578063d524b0ff14610165578063d78d610b14610190578063fbd9497b146101bb5761007b565b8063116191b6146100805780631a98b2e0146100ab57806349160658146100d4578063646304a1146100fd575b600080fd5b34801561008c57600080fd5b506100956101d7565b6040516100a29190610bba565b60405180910390f35b3480156100b757600080fd5b506100d260048036038101906100cd9190610d10565b6101fb565b005b3480156100e057600080fd5b506100fb60048036038101906100f69190610e20565b610326565b005b34801561010957600080fd5b50610124600480360381019061011f9190610ee9565b610445565b6040516101319190610f37565b60405180910390f35b34801561014657600080fd5b5061014f610484565b60405161015c9190610f73565b60405180910390f35b34801561017157600080fd5b5061017a6104a8565b6040516101879190610f9d565b60405180910390f35b34801561019c57600080fd5b506101a56104ae565b6040516101b29190611076565b60405180910390f35b6101d560048036038101906101d0919061122f565b61053c565b005b7f000000000000000000000000000000000000000000000000000000000000000081565b6000858560405161020d92919061134d565b604051809103902090507f000000000000000000000000000000000000000000000000000000000000000073ffffffffffffffffffffffffffffffffffffffff16631876eed98c8c8c8c8c878b8b8b6040518a63ffffffff1660e01b8152600401610280999897969594939291906113b3565b602060405180830381600087803b15801561029a57600080fd5b505af11580156102ae573d6000803e3d6000fd5b505050506040513d601f19601f820116820180604052508101906102d29190611467565b610308576040517f500c44b400000000000000000000000000000000000000000000000000000000815260040160405180910390fd5b6103198a8a8a8a8a8a8a8a8a6108c5565b5050505050505050505050565b6000828260405161033892919061134d565b604051809103902090507f000000000000000000000000000000000000000000000000000000000000000073ffffffffffffffffffffffffffffffffffffffff16635f6970c38989898989876040518763ffffffff1660e01b81526004016103a596959493929190611494565b602060405180830381600087803b1580156103bf57600080fd5b505af11580156103d3573d6000803e3d6000fd5b505050506040513d601f19601f820116820180604052508101906103f79190611467565b61042d576040517f500c44b400000000000000000000000000000000000000000000000000000000815260040160405180910390fd5b61043b878787878787610a8c565b5050505050505050565b6001818154811061045557600080fd5b906000526020600020016000915054906101000a900473ffffffffffffffffffffffffffffffffffffffff1681565b7f000000000000000000000000000000000000000000000000000000000000000081565b60005481565b6060600180548060200260200160405190810160405280929190818152602001828054801561053257602002820191906000526020600020905b8160009054906101000a900473ffffffffffffffffffffffffffffffffffffffff1673ffffffffffffffffffffffffffffffffffffffff16815260200190600101908083116104e8575b5050505050905090565b6000341161057f576040517f08c379a000000000000000000000000000000000000000000000000000000000815260040161057690611537565b60405180910390fd5b60007f000000000000000000000000000000000000000000000000000000000000000073ffffffffffffffffffffffffffffffffffffffff1663935b13f6846040518263ffffffff1660e01b81526004016105da91906115ce565b60206040518083038186803b1580156105f257600080fd5b505afa158015610606573d6000803e3d6000fd5b505050506040513d601f19601f8201168201806040525081019061062a919061161c565b90508073ffffffffffffffffffffffffffffffffffffffff166323b872dd3330856040518463ffffffff1660e01b815260040161066993929190611649565b602060405180830381600087803b15801561068357600080fd5b505af1158015610697573d6000803e3d6000fd5b505050506040513d601f19601f820116820180604052508101906106bb9190611467565b508073ffffffffffffffffffffffffffffffffffffffff1663095ea7b37f0000000000000000000000000000000000000000000000000000000000000000846040518363ffffffff1660e01b8152600401610717929190611680565b602060405180830381600087803b15801561073157600080fd5b505af1158015610745573d6000803e3d6000fd5b505050506040513d601f19601f820116820180604052508101906107699190611467565b506000858560405160200161077f929190611749565b60405160208183030381529060405290507f000000000000000000000000000000000000000000000000000000000000000073ffffffffffffffffffffffffffffffffffffffff1663c62c200234308b8b868a8a336040518963ffffffff1660e01b81526004016107f697969594939291906117c2565b6000604051808303818588803b15801561080f57600080fd5b505af1158015610823573d6000803e3d6000fd5b50505050507f000000000000000000000000000000000000000000000000000000000000000073ffffffffffffffffffffffffffffffffffffffff1663b541708489898488886040518663ffffffff1660e01b815260040161088995949392919061184d565b600060405180830381600087803b1580156108a357600080fd5b505af11580156108b7573d6000803e3d6000fd5b505050505050505050505050565b600085858101906108d6919061197f565b905060007f000000000000000000000000000000000000000000000000000000000000000073ffffffffffffffffffffffffffffffffffffffff1663935b13f686866040518363ffffffff1660e01b81526004016109359291906119c8565b60206040518083038186803b15801561094d57600080fd5b505afa158015610961573d6000803e3d6000fd5b505050506040513d601f19601f82011682018060405250810190610985919061161c565b90508260008190555081600190805190602001906109a4929190610a94565b5060008251846109b49190611a4a565b905060005b8351811015610a7d578273ffffffffffffffffffffffffffffffffffffffff1663a9059cbb8583815181106109f1576109f0611a7b565b5b6020026020010151846040518363ffffffff1660e01b8152600401610a17929190611680565b602060405180830381600087803b158015610a3157600080fd5b505af1158015610a45573d6000803e3d6000fd5b505050506040513d601f19601f82011682018060405250810190610a699190611467565b508080610a7590611aaa565b9150506109b9565b50505050505050505050505050565b505050505050565b828054828255906000526020600020908101928215610b0d579160200282015b82811115610b0c5782518260006101000a81548173ffffffffffffffffffffffffffffffffffffffff021916908373ffffffffffffffffffffffffffffffffffffffff16021790555091602001919060010190610ab4565b5b509050610b1a9190610b1e565b5090565b5b80821115610b37576000816000905550600101610b1f565b5090565b600073ffffffffffffffffffffffffffffffffffffffff82169050919050565b6000819050919050565b6000610b80610b7b610b7684610b3b565b610b5b565b610b3b565b9050919050565b6000610b9282610b65565b9050919050565b6000610ba482610b87565b9050919050565b610bb481610b99565b82525050565b6000602082019050610bcf6000830184610bab565b92915050565b6000604051905090565b600080fd5b600080fd5b6000819050919050565b610bfc81610be9565b8114610c0757600080fd5b50565b600081359050610c1981610bf3565b92915050565b600080fd5b600080fd5b600080fd5b60008083601f840112610c4457610c43610c1f565b5b8235905067ffffffffffffffff811115610c6157610c60610c24565b5b602083019150836001820283011115610c7d57610c7c610c29565b5b9250929050565b60008083601f840112610c9a57610c99610c1f565b5b8235905067ffffffffffffffff811115610cb757610cb6610c24565b5b602083019150836001820283011115610cd357610cd2610c29565b5b9250929050565b6000819050919050565b610ced81610cda565b8114610cf857600080fd5b50565b600081359050610d0a81610ce4565b92915050565b60008060008060008060008060008060c08b8d031215610d3357610d32610bdf565b5b6000610d418d828e01610c0a565b9a505060208b013567ffffffffffffffff811115610d6257610d61610be4565b5b610d6e8d828e01610c2e565b995099505060408b013567ffffffffffffffff811115610d9157610d90610be4565b5b610d9d8d828e01610c2e565b975097505060608b013567ffffffffffffffff811115610dc057610dbf610be4565b5b610dcc8d828e01610c84565b955095505060808b013567ffffffffffffffff811115610def57610dee610be4565b5b610dfb8d828e01610c2e565b935093505060a0610e0e8d828e01610cfb565b9150509295989b9194979a5092959850565b60008060008060008060006080888a031215610e3f57610e3e610bdf565b5b6000610e4d8a828b01610c0a565b975050602088013567ffffffffffffffff811115610e6e57610e6d610be4565b5b610e7a8a828b01610c2e565b9650965050604088013567ffffffffffffffff811115610e9d57610e9c610be4565b5b610ea98a828b01610c2e565b9450945050606088013567ffffffffffffffff811115610ecc57610ecb610be4565b5b610ed88a828b01610c84565b925092505092959891949750929550565b600060208284031215610eff57610efe610bdf565b5b6000610f0d84828501610cfb565b91505092915050565b6000610f2182610b3b565b9050919050565b610f3181610f16565b82525050565b6000602082019050610f4c6000830184610f28565b92915050565b6000610f5d82610b87565b9050919050565b610f6d81610f52565b82525050565b6000602082019050610f886000830184610f64565b92915050565b610f9781610cda565b82525050565b6000602082019050610fb26000830184610f8e565b92915050565b600081519050919050565b600082825260208201905092915050565b6000819050602082019050919050565b610fed81610f16565b82525050565b6000610fff8383610fe4565b60208301905092915050565b6000602082019050919050565b600061102382610fb8565b61102d8185610fc3565b935061103883610fd4565b8060005b838110156110695781516110508882610ff3565b975061105b8361100b565b92505060018101905061103c565b5085935050505092915050565b600060208201905081810360008301526110908184611018565b905092915050565b600080fd5b6000601f19601f8301169050919050565b7f4e487b7100000000000000000000000000000000000000000000000000000000600052604160045260246000fd5b6110e68261109d565b810181811067ffffffffffffffff82111715611105576111046110ae565b5b80604052505050565b6000611118610bd5565b905061112482826110dd565b919050565b600067ffffffffffffffff821115611144576111436110ae565b5b61114d8261109d565b9050602081019050919050565b82818337600083830152505050565b600061117c61117784611129565b61110e565b90508281526020810184848401111561119857611197611098565b5b6111a384828561115a565b509392505050565b600082601f8301126111c0576111bf610c1f565b5b81356111d0848260208601611169565b91505092915050565b60008083601f8401126111ef576111ee610c1f565b5b8235905067ffffffffffffffff81111561120c5761120b610c24565b5b60208301915083602082028301111561122857611227610c29565b5b9250929050565b60008060008060008060a0878903121561124c5761124b610bdf565b5b600087013567ffffffffffffffff81111561126a57611269610be4565b5b61127689828a016111ab565b965050602087013567ffffffffffffffff81111561129757611296610be4565b5b6112a389828a016111ab565b955050604087013567ffffffffffffffff8111156112c4576112c3610be4565b5b6112d089828a016111d9565b9450945050606087013567ffffffffffffffff8111156112f3576112f2610be4565b5b6112ff89828a016111ab565b925050608061131089828a01610cfb565b9150509295509295509295565b600081905092915050565b6000611334838561131d565b935061134183858461115a565b82840190509392505050565b600061135a828486611328565b91508190509392505050565b61136f81610be9565b82525050565b600082825260208201905092915050565b60006113928385611375565b935061139f83858461115a565b6113a88361109d565b840190509392505050565b600060c0820190506113c8600083018c611366565b81810360208301526113db818a8c611386565b905081810360408301526113f081888a611386565b90506113ff6060830187611366565b8181036080830152611412818587611386565b905061142160a0830184610f8e565b9a9950505050505050505050565b60008115159050919050565b6114448161142f565b811461144f57600080fd5b50565b6000815190506114618161143b565b92915050565b60006020828403121561147d5761147c610bdf565b5b600061148b84828501611452565b91505092915050565b60006080820190506114a96000830189611366565b81810360208301526114bc818789611386565b905081810360408301526114d1818587611386565b90506114e06060830184611366565b979650505050505050565b7f476173207061796d656e74206973207265717569726564000000000000000000600082015250565b6000611521601783611375565b915061152c826114eb565b602082019050919050565b6000602082019050818103600083015261155081611514565b9050919050565b600081519050919050565b60005b83811015611580578082015181840152602081019050611565565b8381111561158f576000848401525b50505050565b60006115a082611557565b6115aa8185611375565b93506115ba818560208601611562565b6115c38161109d565b840191505092915050565b600060208201905081810360008301526115e88184611595565b905092915050565b6115f981610f16565b811461160457600080fd5b50565b600081519050611616816115f0565b92915050565b60006020828403121561163257611631610bdf565b5b600061164084828501611607565b91505092915050565b600060608201905061165e6000830186610f28565b61166b6020830185610f28565b6116786040830184610f8e565b949350505050565b60006040820190506116956000830185610f28565b6116a26020830184610f8e565b9392505050565b6000819050919050565b6000813590506116c2816115f0565b92915050565b60006116d760208401846116b3565b905092915050565b6000602082019050919050565b60006116f88385610fc3565b9350611703826116a9565b8060005b8581101561173c5761171982846116c8565b6117238882610ff3565b975061172e836116df565b925050600181019050611707565b5085925050509392505050565b600060208201905081810360008301526117648184866116ec565b90509392505050565b600081519050919050565b600082825260208201905092915050565b60006117948261176d565b61179e8185611778565b93506117ae818560208601611562565b6117b78161109d565b840191505092915050565b600060e0820190506117d7600083018a610f28565b81810360208301526117e98189611595565b905081810360408301526117fd8188611595565b905081810360608301526118118187611789565b905081810360808301526118258186611595565b905061183460a0830185610f8e565b61184160c0830184610f28565b98975050505050505050565b600060a08201905081810360008301526118678188611595565b9050818103602083015261187b8187611595565b9050818103604083015261188f8186611789565b905081810360608301526118a38185611595565b90506118b26080830184610f8e565b9695505050505050565b600067ffffffffffffffff8211156118d7576118d66110ae565b5b602082029050602081019050919050565b60006118fb6118f6846118bc565b61110e565b9050808382526020820190506020840283018581111561191e5761191d610c29565b5b835b81811015611947578061193388826116b3565b845260208401935050602081019050611920565b5050509392505050565b600082601f83011261196657611965610c1f565b5b81356119768482602086016118e8565b91505092915050565b60006020828403121561199557611994610bdf565b5b600082013567ffffffffffffffff8111156119b3576119b2610be4565b5b6119bf84828501611951565b91505092915050565b600060208201905081810360008301526119e3818486611386565b90509392505050565b7f4e487b7100000000000000000000000000000000000000000000000000000000600052601260045260246000fd5b7f4e487b7100000000000000000000000000000000000000000000000000000000600052601160045260246000fd5b6000611a5582610cda565b9150611a6083610cda565b925082611a7057611a6f6119ec565b5b828204905092915050565b7f4e487b7100000000000000000000000000000000000000000000000000000000600052603260045260246000fd5b6000611ab582610cda565b91507fffffffffffffffffffffffffffffffffffffffffffffffffffffffffffffffff821415611ae857611ae7611a1b565b5b60018201905091905056fea26469706673582212202c18fd66244d39dca1460e15b6c459b19cd61515bf2889d900f3abb05cedc03f64736f6c63430008090033",
  "linkReferences": {},
  "deployedLinkReferences": {}
}